{
  "contractName": "EVCharging",
  "abi": [
    {
      "inputs": [],
      "payable": false,
      "stateMutability": "nonpayable",
      "type": "constructor"
    },
    {
      "anonymous": false,
      "inputs": [
        {
          "indexed": false,
          "internalType": "uint256",
          "name": "custID",
          "type": "uint256"
        },
        {
          "indexed": false,
          "internalType": "uint256",
          "name": "walletAmount",
          "type": "uint256"
        },
        {
          "indexed": false,
          "internalType": "string",
          "name": "custName",
          "type": "string"
        },
        {
          "indexed": false,
          "internalType": "address",
          "name": "owner",
          "type": "address"
        }
      ],
      "name": "WalletCreated",
      "type": "event"
    },
    {
      "anonymous": false,
      "inputs": [
        {
          "indexed": false,
          "internalType": "uint256",
          "name": "custID",
          "type": "uint256"
        },
        {
          "indexed": false,
          "internalType": "uint256",
          "name": "walletAmount",
          "type": "uint256"
        },
        {
          "indexed": false,
          "internalType": "string",
          "name": "custName",
          "type": "string"
        },
        {
          "indexed": false,
          "internalType": "address",
          "name": "owner",
          "type": "address"
        }
      ],
      "name": "WalletUpdated",
      "type": "event"
    },
    {
      "constant": true,
      "inputs": [],
      "name": "evCustCount",
      "outputs": [
        {
          "internalType": "uint256",
          "name": "",
          "type": "uint256"
        }
      ],
      "payable": false,
      "stateMutability": "view",
      "type": "function"
    },
    {
      "constant": true,
      "inputs": [
        {
          "internalType": "uint256",
          "name": "",
          "type": "uint256"
        }
      ],
      "name": "evCustomers",
      "outputs": [
        {
          "internalType": "uint256",
          "name": "custID",
          "type": "uint256"
        },
        {
          "internalType": "uint256",
          "name": "walletAmount",
          "type": "uint256"
        },
        {
          "internalType": "string",
          "name": "custName",
          "type": "string"
        },
        {
          "internalType": "address",
          "name": "owner",
          "type": "address"
        }
      ],
      "payable": false,
      "stateMutability": "view",
      "type": "function"
    },
    {
      "constant": true,
      "inputs": [],
      "name": "name",
      "outputs": [
        {
          "internalType": "string",
          "name": "",
          "type": "string"
        }
      ],
      "payable": false,
      "stateMutability": "view",
      "type": "function"
    },
    {
      "constant": false,
      "inputs": [
        {
          "internalType": "string",
          "name": "_custName",
          "type": "string"
        },
        {
          "internalType": "uint256",
          "name": "_walletAmount",
          "type": "uint256"
        }
      ],
      "name": "createWallet",
      "outputs": [],
      "payable": false,
      "stateMutability": "nonpayable",
      "type": "function"
    },
    {
      "constant": false,
      "inputs": [
        {
          "internalType": "uint256",
          "name": "_custID",
          "type": "uint256"
        }
      ],
      "name": "topUpWallet",
      "outputs": [],
      "payable": true,
      "stateMutability": "payable",
      "type": "function"
    },
    {
      "constant": true,
      "inputs": [
        {
          "internalType": "uint256",
          "name": "_custID",
          "type": "uint256"
        }
      ],
      "name": "queryWallet",
      "outputs": [
        {
          "internalType": "uint256",
          "name": "",
          "type": "uint256"
        }
      ],
      "payable": false,
      "stateMutability": "view",
      "type": "function"
    }
  ],
  "bytecode": "0x6080604052600060015534801561001557600080fd5b506040518060400160405280601681526020017f45564368617267696e67204170706c69636174696f6e0000000000000000000081525060009080519060200190610061929190610067565b5061010c565b828054600181600116156101000203166002900490600052602060002090601f016020900481019282601f106100a857805160ff19168380011785556100d6565b828001600101855582156100d6579182015b828111156100d55782518255916020019190600101906100ba565b5b5090506100e391906100e7565b5090565b61010991905b808211156101055760008160009055506001016100ed565b5090565b90565b610bea8061011b6000396000f3fe6080604052600436106100555760003560e01c806306fdde031461005a5780633ce32dc7146100ea578063495edb2c14610139578063864332871461016757806398f9b72c1461025c578063f3c1513814610287575b600080fd5b34801561006657600080fd5b5061006f610359565b6040518080602001828103825283818151815260200191508051906020019080838360005b838110156100af578082015181840152602081019050610094565b50505050905090810190601f1680156100dc5780820380516001836020036101000a031916815260200191505b509250505060405180910390f35b3480156100f657600080fd5b506101236004803603602081101561010d57600080fd5b81019080803590602001909291905050506103f7565b6040518082815260200191505060405180910390f35b6101656004803603602081101561014f57600080fd5b810190808035906020019092919050505061053a565b005b34801561017357600080fd5b506101a06004803603602081101561018a57600080fd5b8101908080359060200190929190505050610808565b60405180858152602001848152602001806020018373ffffffffffffffffffffffffffffffffffffffff1673ffffffffffffffffffffffffffffffffffffffff168152602001828103825284818151815260200191508051906020019080838360005b8381101561021e578082015181840152602081019050610203565b50505050905090810190601f16801561024b5780820380516001836020036101000a031916815260200191505b509550505050505060405180910390f35b34801561026857600080fd5b506102716108f0565b6040518082815260200191505060405180910390f35b34801561029357600080fd5b50610357600480360360408110156102aa57600080fd5b81019080803590602001906401000000008111156102c757600080fd5b8201836020820111156102d957600080fd5b803590602001918460018302840111640100000000831117156102fb57600080fd5b91908080601f016020809104026020016040519081016040528093929190818152602001838380828437600081840152601f19601f820116905080830192505050505050509192919290803590602001909291905050506108f6565b005b60008054600181600116156101000203166002900480601f0160208091040260200160405190810160405280929190818152602001828054600181600116156101000203166002900480156103ef5780601f106103c4576101008083540402835291602001916103ef565b820191906000526020600020905b8154815290600101906020018083116103d257829003601f168201915b505050505081565b6000610401610ad2565b600260008481526020019081526020016000206040518060800160405290816000820154815260200160018201548152602001600282018054600181600116156101000203166002900480601f0160208091040260200160405190810160405280929190818152602001828054600181600116156101000203166002900480156104cc5780601f106104a1576101008083540402835291602001916104cc565b820191906000526020600020905b8154815290600101906020018083116104af57829003601f168201915b505050505081526020016003820160009054906101000a900473ffffffffffffffffffffffffffffffffffffffff1673ffffffffffffffffffffffffffffffffffffffff1673ffffffffffffffffffffffffffffffffffffffff168152505090508060200151915050919050565b6000811161054757600080fd5b61054f610ad2565b600260008381526020019081526020016000206040518060800160405290816000820154815260200160018201548152602001600282018054600181600116156101000203166002900480601f01602080910402602001604051908101604052809291908181526020018280546001816001161561010002031660029004801561061a5780601f106105ef5761010080835404028352916020019161061a565b820191906000526020600020905b8154815290600101906020018083116105fd57829003601f168201915b505050505081526020016003820160009054906101000a900473ffffffffffffffffffffffffffffffffffffffff1673ffffffffffffffffffffffffffffffffffffffff1673ffffffffffffffffffffffffffffffffffffffff16815250509050348160200181815101915081815250508060026000848152602001908152602001600020600082015181600001556020820151816001015560408201518160020190805190602001906106cf929190610b10565b5060608201518160030160006101000a81548173ffffffffffffffffffffffffffffffffffffffff021916908373ffffffffffffffffffffffffffffffffffffffff1602179055509050507f954f6ee61b945e6bea589e13c77b4f1e060c35d08f6c816273420ac9d72da74d600154826020015183604001513360405180858152602001848152602001806020018373ffffffffffffffffffffffffffffffffffffffff1673ffffffffffffffffffffffffffffffffffffffff168152602001828103825284818151815260200191508051906020019080838360005b838110156107c75780820151818401526020810190506107ac565b50505050905090810190601f1680156107f45780820380516001836020036101000a031916815260200191505b509550505050505060405180910390a15050565b6002602052806000526040600020600091509050806000015490806001015490806002018054600181600116156101000203166002900480601f0160208091040260200160405190810160405280929190818152602001828054600181600116156101000203166002900480156108c05780601f10610895576101008083540402835291602001916108c0565b820191906000526020600020905b8154815290600101906020018083116108a357829003601f168201915b5050505050908060030160009054906101000a900473ffffffffffffffffffffffffffffffffffffffff16905084565b60015481565b600082511161090457600080fd5b6000811161091157600080fd5b600160008154809291906001019190505550604051806080016040528060015481526020018281526020018381526020013373ffffffffffffffffffffffffffffffffffffffff16815250600260006001548152602001908152602001600020600082015181600001556020820151816001015560408201518160020190805190602001906109a1929190610b10565b5060608201518160030160006101000a81548173ffffffffffffffffffffffffffffffffffffffff021916908373ffffffffffffffffffffffffffffffffffffffff1602179055509050507facd73ba827c66cb1d468e4277242de72d1a65d2bfbaf1403399fea5f0447ebeb60015482843360405180858152602001848152602001806020018373ffffffffffffffffffffffffffffffffffffffff1673ffffffffffffffffffffffffffffffffffffffff168152602001828103825284818151815260200191508051906020019080838360005b83811015610a91578082015181840152602081019050610a76565b50505050905090810190601f168015610abe5780820380516001836020036101000a031916815260200191505b509550505050505060405180910390a15050565b6040518060800160405280600081526020016000815260200160608152602001600073ffffffffffffffffffffffffffffffffffffffff1681525090565b828054600181600116156101000203166002900490600052602060002090601f016020900481019282601f10610b5157805160ff1916838001178555610b7f565b82800160010185558215610b7f579182015b82811115610b7e578251825591602001919060010190610b63565b5b509050610b8c9190610b90565b5090565b610bb291905b80821115610bae576000816000905550600101610b96565b5090565b9056fea265627a7a72315820f9e07c5c8f6f8ea3ebe3d6ca974cfd0c8bfbca615545ffd2a5d5131ff62c4dea64736f6c63430005100032",
  "source": "pragma solidity ^0.5.0;\r\n\r\ncontract EVCharging{\r\n\tstring public name;\r\n\tuint public evCustCount = 0;\r\n\tmapping(uint => EVCustomer) public evCustomers;\r\n\r\n\tstruct EVCustomer {\r\n\t\tuint custID;\r\n\t\tuint walletAmount;\r\n\t\tstring custName;\t\r\n\t\taddress owner;\r\n\t}\r\n\r\n\tevent WalletCreated(\r\n\t\tuint custID,\r\n\t\tuint walletAmount,\r\n\t\tstring custName,\t\r\n\t\taddress owner\t\r\n\t);\r\n\r\n\tevent WalletUpdated(\r\n\t\tuint custID,\r\n\t\tuint walletAmount,\r\n\t\tstring custName,\t\r\n\t\taddress owner\t\r\n\t);\r\n\r\n\tconstructor() public {\r\n\t\tname = \"EVCharging Application\";\r\n\t}\r\n\r\n\tfunction createWallet(string memory _custName, uint _walletAmount) public {\r\n\t\t//Validate parameters start\r\n\t\trequire (bytes(_custName).length > 0 );\r\n\t\trequire(_walletAmount > 0);\r\n\t\t//Validate parameters ends\t\t\r\n\t\tevCustCount ++;\r\n\t\tevCustomers[evCustCount] = EVCustomer(evCustCount, _walletAmount, _custName, msg.sender);\r\n\t\t//Events are used for logging data\r\n\t\temit WalletCreated(evCustCount, _walletAmount, _custName, msg.sender);\r\n\t}\r\n\r\n\tfunction topUpWallet(uint _custID) public payable{\r\n\t\t//Validate the amount and custID\r\n\t\trequire(_custID > 0);\r\n\t\t//Fetch the customer details. Instantiating new EVCustomer and creating a copy in memory for the ID.\r\n\t\tEVCustomer memory _evCustomer = evCustomers[_custID];\r\n\t\t//Update the wallet amount to the new amount\r\n\t\t//_evCustomer.walletAmount = _evCustomer.walletAmount + _newAmount;\r\n\t\t//Update the blockchain value with the new amount\r\n\t\t_evCustomer.walletAmount += msg.value;\r\n\t\tevCustomers[_custID] = _evCustomer;\r\n\t\temit WalletUpdated(evCustCount, _evCustomer.walletAmount, _evCustomer.custName, msg.sender);\r\n\t} \r\n\r\n\tfunction queryWallet(uint _custID) public view returns(uint) {\r\n    \tEVCustomer memory _evCustomer = evCustomers[_custID];\r\n\t\t\r\n    \treturn _evCustomer.walletAmount;\r\n\t}\r\n\r\n\r\n\r\n\r\n}\r\n",
  "sourcePath": "C:/Raj/Course/Project/EVProject/evcharging/src/contracts/EVCharging.sol",
  "compiler": {
    "name": "solc",
    "version": "0.5.16+commit.9c3226ce.Emscripten.clang"
  },
  "schemaVersion": "3.2.5",
  "updatedAt": "2020-10-16T05:32:19.168Z",
  "devdoc": {
    "methods": {}
  },
  "userdoc": {
    "methods": {}
  }
}